{
  "transactions": [
    {
      "hash": "0xf12d0592811557979e40d9f6ba49e3e24034275ee09574bf35163f13f514ff41",
      "transactionType": "CALL",
      "contractName": null,
      "contractAddress": "0x779877a7b0d9e8603169ddbd7836e478b4624789",
      "function": "transferAndCall(address,uint256,bytes)",
      "arguments": [
        "0x9DdfaCa8183c41ad55329BdeeD9F6A8d53168B1B",
        "3000000000000000000",
        "0x3c3c942470f9adc91bf2eafc38b498e0c5e1f3cb93510e1192fa38045adac618"
      ],
      "transaction": {
        "from": "0xa2cca0f7acaa61d1e2bf3c1ad7a5fed74df3110f",
        "to": "0x779877a7b0d9e8603169ddbd7836e478b4624789",
        "gas": "0x14cbb",
        "value": "0x0",
        "input": "0x4000aea00000000000000000000000009ddfaca8183c41ad55329bdeed9f6a8d53168b1b00000000000000000000000000000000000000000000000029a2241af62c0000000000000000000000000000000000000000000000000000000000000000006000000000000000000000000000000000000000000000000000000000000000203c3c942470f9adc91bf2eafc38b498e0c5e1f3cb93510e1192fa38045adac618",
        "nonce": "0x1d",
        "chainId": "0xaa36a7"
      },
      "additionalContracts": [],
      "isFixedGasLimit": false
    }
  ],
  "receipts": [
    {
      "status": "0x1",
      "cumulativeGasUsed": "0x7b06f9",
      "logs": [
        {
          "address": "0x779877a7b0d9e8603169ddbd7836e478b4624789",
          "topics": [
            "0xddf252ad1be2c89b69c2b068fc378daa952ba7f163c4a11628f55a4df523b3ef",
            "0x000000000000000000000000a2cca0f7acaa61d1e2bf3c1ad7a5fed74df3110f",
            "0x0000000000000000000000009ddfaca8183c41ad55329bdeed9f6a8d53168b1b"
          ],
          "data": "0x00000000000000000000000000000000000000000000000029a2241af62c0000",
          "blockHash": "0x85ad99cecaa3854c39d8bb0dc4daae39eacbcf7de2fb44cc43de743f9eaf6c0c",
          "blockNumber": "0x7b483e",
          "blockTimestamp": "0x67f583dc",
          "transactionHash": "0xf12d0592811557979e40d9f6ba49e3e24034275ee09574bf35163f13f514ff41",
          "transactionIndex": "0x31",
          "logIndex": "0x3a",
          "removed": false
        },
        {
          "address": "0x779877a7b0d9e8603169ddbd7836e478b4624789",
          "topics": [
            "0xe19260aff97b920c7df27010903aeb9c8d2be5d310a2c67824cf3f15396e4c16",
            "0x000000000000000000000000a2cca0f7acaa61d1e2bf3c1ad7a5fed74df3110f",
            "0x0000000000000000000000009ddfaca8183c41ad55329bdeed9f6a8d53168b1b"
          ],
          "data": "0x00000000000000000000000000000000000000000000000029a2241af62c0000000000000000000000000000000000000000000000000000000000000000004000000000000000000000000000000000000000000000000000000000000000203c3c942470f9adc91bf2eafc38b498e0c5e1f3cb93510e1192fa38045adac618",
          "blockHash": "0x85ad99cecaa3854c39d8bb0dc4daae39eacbcf7de2fb44cc43de743f9eaf6c0c",
          "blockNumber": "0x7b483e",
          "blockTimestamp": "0x67f583dc",
          "transactionHash": "0xf12d0592811557979e40d9f6ba49e3e24034275ee09574bf35163f13f514ff41",
          "transactionIndex": "0x31",
          "logIndex": "0x3b",
          "removed": false
        },
        {
          "address": "0x9ddfaca8183c41ad55329bdeed9f6a8d53168b1b",
          "topics": [
            "0x1ced9348ff549fceab2ac57cd3a9de38edaaab274b725ee82c23e8fc8c4eec7a",
            "0x3c3c942470f9adc91bf2eafc38b498e0c5e1f3cb93510e1192fa38045adac618"
          ],
          "data": "0x0000000000000000000000000000000000000000000000001bc16d674ec800000000000000000000000000000000000000000000000000004563918244f40000",
          "blockHash": "0x85ad99cecaa3854c39d8bb0dc4daae39eacbcf7de2fb44cc43de743f9eaf6c0c",
          "blockNumber": "0x7b483e",
          "blockTimestamp": "0x67f583dc",
          "transactionHash": "0xf12d0592811557979e40d9f6ba49e3e24034275ee09574bf35163f13f514ff41",
          "transactionIndex": "0x31",
          "logIndex": "0x3c",
          "removed": false
        }
      ],
      "logsBloom": "0x00004004000000000000000000000000000000000020000000000000020000000000000000000000000000000000000000000000000000000000000000000000000000000000000000000008000000000000000000000000000020000020000008000000000000000000000004000000000002000000000000000010000040000000000000000000000800010000800000000020000000000000000000000000000000000000000000000000010002000000000000000000000004000000000000000002000000000000000000000000000000000000000100000000000000000010010000000000800000000000000000000000000000000000000000000000",
      "type": "0x2",
      "transactionHash": "0xf12d0592811557979e40d9f6ba49e3e24034275ee09574bf35163f13f514ff41",
      "transactionIndex": "0x31",
      "blockHash": "0x85ad99cecaa3854c39d8bb0dc4daae39eacbcf7de2fb44cc43de743f9eaf6c0c",
      "blockNumber": "0x7b483e",
      "gasUsed": "0xf0e5",
      "effectiveGasPrice": "0x102556",
      "from": "0xa2cca0f7acaa61d1e2bf3c1ad7a5fed74df3110f",
      "to": "0x779877a7b0d9e8603169ddbd7836e478b4624789",
      "contractAddress": null
    }
  ],
  "libraries": [],
  "pending": [],
  "returns": {},
  "timestamp": 1744143325,
  "chain": 11155111,
  "commit": "7da684f"
}